:100000000C946F050C94B3050C94B3050C94B305D4
:100010000C94B3050C94B3050C94B3050C94B30580
:100020000C94B3050C94B3050C9412110C94E411C8
:100030000C94B3050C94B3050C94B3050C94B30560
:100040000C94B3050C94B2240C94B3050C94B30532
:100050000C94B3050C94B01F0C94B3050C94B30529
:100060000C94B3050C94B3050C94B3050C94B30530
:100070000C94B3050C94B3050C94B3050C94B30520
:100080000C94B3050C94B3050C94B3050C94B30510
:100090000C94B3050C94B3050C94B3050C94B30500
:1000A0000C94B3050C94B3050C94B3056B08570876
:1000B000550882085A0880087E085D086E084912B3
:1000C0006B1256136B125613AD12D0125613251322
:1000D0003813121612164116411679169B16C317BD
:1000E000C317A616C3174D174D17B617C317C31757
:1000F000BE175A175A175A175A175A175A175A1714
:100100005A175A175A175A175A175A175A175A1767
:100110005A176C177A178117881792176572676FCD
:10012000646F785F657A2F72736D2D717765727465
:100130007920402076342E302D3233322D673839F5
:10014000656262372D6469727479000000F0A1F075
:10015000A2F0A3F0A4F0A5F0A6F0A7F0A8F0A935AE
:100160000039002B00E100290000001E00140004EB
:10017000001D00E2004E001F001A0016001B00E3E5
:10018000002A002000080007000600E0002C0021E3
:10019000001500090019004C004B00220017000A4E
:1001A00000050000004A004900C1000000025300A1
:1001B000004D002E000353000004530000500023A4
:1001C000001C000B00110000004F00240018000D5F
:1001D000001000E400520025000C000E003600E77D
:1001E000002C00260012000F003700E60028002730
:1001F000001300330038002F0051002D003100346F
:1002000000E50030000000000000000000000001D8
:1002100000000000003A003E0042000000AA00007A
:10022000003B003F0043000000000000003C004095
:100230000044000000000000003D004100450000B7
:1002400000A8000000470046004800000000000031
:10025000000100000005530000A900000006530043
:100260000007530000BC0000000000000000000078
:1002700000BB0053005F005C0059006200AC0054FA
:100280000060005D005A006200AE00550061005E33
:10029000005B006300AD0056002E022E025800588D
:1002A00000AB0048004700460000000000000000CE
:1002B000000000000000000000000000000000003E
:1002C000000000000000000000000000000000002E
:1002D000000000000000000000000000000000001E
:1002E000000000000000000000000000000000000E
:1002F00000000000000000000000000000010000FD
:1003000000000000000000000000000000000000ED
:1003100000000000000000000000000000000000DD
:1003200000000000000000000000000000000000CD
:1003300000000000000000000000000000000000BD
:1003400000000000000000000000000000000000AD
:10035000000000000000000000000000000000009D
:10036000000000000000000000000000000000008D
:10037000000000000000000000000000000000007D
:10038000000000000000000000000000000000006D
:10039000000000000000000000000000000000005D
:1003A000000000000000000000000000000100004C
:1003B000000000000000000000000000000000003D
:1003C000000000000000000000000000000000002D
:1003D000000000000000000000000000000000001D
:1003E000000000000000000000000000000000000D
:1003F00000000000000000000000000000000000FD
:1004000000000000000000000000000000000000EC
:1004100000000000000000000000000000000000DC
:1004200000000000000000000000000000000000CC
:1004300000000000000000000000000000000000BC
:1004400000000000000000000000000000000000AC
:10045000000000000000000000010000000000009B
:10046000000000000000000000000000000000008C
:10047000000000000000000000000000000000007C
:10048000000000000000000000000000000000006C
:10049000000000000000000000000000000000005C
:1004A000000000000000000000000000000000004C
:1004B000000000000000000000000000000000003C
:1004C000000000000000000000000000000000002C
:1004D000000000000000000000000000000000001C
:1004E000000000000000000000000000000000000C
:1004F00000000000000100000000000000085300A0
:1005000000000000000000000000000000000000EB
:1005100000000000000000000000000000000000DB
:1005200000000000000000000000000000000000CB
:1005300000000000000000000000000000000000BB
:1005400000000000000000000000000000000000AB
:10055000000000000000000000000000000000009B
:10056000000000000000000000000000000000008B
:10057000000000000000000000000000000000007B
:10058000000000000000000000000000000000006B
:10059000000000000000000000000000000000005B
:1005A000000000000001000000000000000000004A
:1005B000000000000000000000000000000000003B
:1005C000000000000000000000000000000000002B
:1005D000000000000000000000000000000000001B
:1005E000000000000000000000000000000000000B
:1005F00000000000000000000000000000000000FB
:1006000000000000000000000000000000000000EA
:1006100000000000000000000000000000000000DA
:1006200000000000000000000000000000000000CA
:1006300000000000000000000000000000000000BA
:1006400000000000000000000000000000000000AA
:100650000001000000000000000000000000000099
:10066000000000000000000000000000000000008A
:10067000000000000000000000000000000000007A
:10068000000000000000000000000000000000006A
:10069000000000000000000000000000000000005A
:1006A000000000000000000000000000000000004A
:1006B000000000000000000000000000000000003A
:1006C000000000000000000000000000000000002A
:1006D000000000000000000000000000000000001A
:1006E000000000000000000000000000000000000A
:1006F000000000000001000000095300000000009D
:1007000000000000000000000000000000000000E9
:1007100000000000000000000000000000000000D9
:1007200000000000000000000000000000000000C9
:1007300000000000000000000000000000000000B9
:1007400000000000000000000000000000000000A9
:100750000000000000000000000000000000000099
:100760000000000000000000000000000000000089
:100770000000000000000000000000000000000079
:100780000000000000000000000000000000000069
:100790000000000000000000000000000000000059
:1007A0000001000000000000000000000000000048
:1007B0000000000000000000000000000000000039
:1007C00000000000000000000000700000000000B9
:1007D0000000000000000000000000000000000019
:1007E0000000000000000000000000000000000009
:1007F000000000000000002A2B280000000000007C
:100800000000000000000000000029000000002C93
:100810001E3420212224342627252E362D37382732
:100820001E1F202122232425263333362E37381F3E
:100830000405060708090A0B0C0D0E0F1011121300
:100840001415161718191A1B1C1D2F3130232D359E
:100850000405060708090A0B0C0D0E0F10111213E0
:100860001415161718191A1B1C1D2F3130354C0082
:100870000000000000000000000000000000000078
:100880000000000000000000000000000000000068
:10089000010101010101000101010100000000004E
:1008A0000000000000000000000100010001010143
:1008B0000101010101010101010101010101010128
:1008C000010101010101010101010000000101001C
:1008D0000000000000000000000000000000000018
:1008E00000000000000000000000010101010016EE
:1008F000034500720067006F0044006F007800201D
:100900000045005A00000016034500720067006FA2
:100910000044006F007800200045005A00000004E9
:1009200003090409026D00040100A0FA0904000093
:100930000103010100092111010001224000070506
:10094000810308000A0904010001030102000921D2
:1009500011010001224D000705820308000A090465
:1009600002000103000000092111010001223600EC
:100970000705830308000A090403000103000000BF
:10098000092111010001223900070584031000012B
:100990001201100100000008EDFE07130100010222
:1009A000000105010906A101050719E029E7150065
:1009B000250195087501810205081901290595058C
:1009C00075019102950175039101050719002977B9
:1009D00015002501957875018102C005010980A1E6
:1009E00001850216010026B7001A01002AB700751A
:1009F0001095018100C0050C0901A10185031601B4
:100A000000269C021A01002A9C02751095018100A3
:100A1000C005010902A1010901A100050919012967
:100A20000515002501950575018102950175038164
:100A3000010501093009311581257F95027508816D
:100A40000609381581257F950175088106050C0A70
:100A500038021581257F950175088106C0C0050102
:100A60000906A101050719E029E7150025019508E8
:100A70007501810295017508810105081901290593
:100A800095057501910295017503910105071900FE
:100A900029FF150026FF00950675088100C000009B
:100AA000000000000000000000010204060A0F1709
:100AB000202C3A4A5D71879DB3C7DAE9F5FCFFFC4B
:100AC000F5E9DAC7B39D87715D4A3A2C20170F0A02
:100AD00006040201000000000000000000001124D4
:100AE0001FBECFEFDAE0DEBFCDBF04B603FE24C0E9
:100AF0008091FD019091FE01A091FF01B091000253
:100B00008730904BA740B04BB9F41092FD01109282
:100B1000FE011092FF011092000214BE84B7877F7D
:100B200084BF88E10FB6F894809360001092600053
:100B30000FBEE0E0FFE3099511E0A0E0B1E0E2EFD5
:100B4000FCE402C005900D92A433B107D9F721E06F
:100B5000A4E3B1E001C01D92AD3FB207E1F70E94EE
:100B60005C0E0C9477260C9400001092B9008AE079
:100B70008093B800089594EA9093BC009091BC00D3
:100B800097FFFCCF9091B900987F983021F0903179
:100B900011F081E008958093BB0084E88093BC004D
:100BA0008091BC0087FFFCCF8091B900887F88319D
:100BB00011F0803471F780E0089584E98093BC00DF
:100BC0008091BC0084FDFCCF08958093BB0084E835
:100BD0008093BC008091BC0087FFFCCF9091B9004E
:100BE000987F81E0983209F480E0089584E880934A
:100BF000BC008091BC0087FFFCCF8091BB000895B2
:100C000080B38C7080BB81B3836F81BB089580916A
:100C10000101811115C080E40E94BB058093010190
:100C200081110CC082E10E94E505809301018111D0
:100C300005C08FEF0E94E505809301010E94DD054C
:100C400084B1807F84B985B1807F85B98AB1837F83
:100C50008AB98BB1837F8BB93E98469808950E94DC
:100C6000CE07809301010E9407060E940006E3E47C
:100C7000F1E0A5E3B1E011921D9281E0E135F807C2
:100C8000D1F70C94B8070E94CE07809301010E940F
:100C900007060E940006E3E4F1E0A5E3B1E011924B
:100CA0001D9281E0E135F807D1F70895BF92CF9208
:100CB000DF92EF92FF920F931F93CF93DF93809178
:100CC0000101882379F0809134018F5F8093340192
:100CD000811108C00E94CE0780930101811102C0DA
:100CE0000E94600705E311E0C0E0D0E0DD24D3946A
:100CF00082E0C82EEE24E394F12CC73000F58091F9
:100D00000101811162C080E40E94BB058093010152
:100D1000811112C082E10E94E505809301018111D9
:100D20000BC0C7010C2E01C0880F0A94EAF780950A
:100D30000E94E505809301010E94DD0546C0CA308E
:100D4000A1F028F4C83059F0C93061F005C0CC30AA
:100D500089F070F0CD3089F0209A289810C0219A3F
:100D600029980DC0229A2A980AC0239A2B9807C066
:100D7000529A01C0539A5B9802C03E9A4698E0EAA4
:100D8000EA95F1F78FB179995AC092E081708D257B
:100D9000892B7C9B02C090E001C094E0892B7D9B55
:100DA00002C090E001C098E0892B7E9B02C090E0D9
:100DB00001C090E1892B9FB19095991F9927991FA8
:100DC0009295990F907E892B0FC08091010181111E
:100DD0004BC080E40E94BB0580930101882389F108
:100DE000B12C0E94DD058B2DF8019081981719F028
:100DF0008083C09200010E94070621960F5F1F4F5B
:100E0000CE30D10509F079CF80910001882371F1AE
:100E1000815080930001882339F08FE99FE001978A
:100E2000F1F700C0000022C0A3E4B1E0E5E3F1E087
:100E300081918D9391E0E334F907D1F717C090E0E9
:100E4000A5CF83E10E94E505809301018111C8CF00
:100E500081E40E94BB05809301018111C1CF0E94F2
:100E6000F605B82EB094BDCF80E0BECF0E945E07DD
:100E700081E0DF91CF911F910F91FF90EF90DF9074
:100E8000CF90BF900895E82FF0E0ED5BFE4F80819A
:100E9000089508951F93CF93DF93C3E4D1E010E04A
:100EA000899190E00E94D51E180F81E0C135D807C6
:100EB000B9F7812FDF91CF911F9108950C942B08E2
:100EC00056985E9825982D9826982E9827982F98B2
:100ED0008FEF90E0909389008093880090938B002F
:100EE00080938A0090938D0080938C00259A2D9A90
:100EF0002FEF80E792E0215080409040E1F700C062
:100F00000000269A2E9A2FEF80E792E02150804031
:100F10009040E1F700C00000279A2F9A2FEF80E75A
:100F200092E0215080409040E1F700C000002598F9
:100F30002D982FEF80E792E0215080409040E1F71C
:100F400000C0000026982E982FEF80E792E02150F5
:100F500080409040E1F700C0000027982F985698F5
:100F60005E9825982D9826982E9827982F98089562
:100F700089EA8093800089E08093810024982C98EE
:100F80003F988AB18F748AB96E98479A8BB1806BFB
:100F90008BB9769A0E9460070C942A0880E28093AD
:100FA00001018091510181110EC00E94B50581E0BF
:100FB000809351012FEF83ED90E3215080409040CA
:100FC000E1F700C0000080E40E94BB0580930101AE
:100FD00081112EC00E94E50580930101811128C076
:100FE0000E94E50580930101811122C08FE30E94D8
:100FF000E5058093010181111BC00E94DD0580E49D
:101000000E94BB0580930101811112C08CE00E94F7
:10101000E5058093010181110BC00E94E5058093D5
:101020000101811105C08FE30E94E5058093010154
:101030000E94DD05809101010895611108C0FC0145
:101040008281882321F08CE191E00E94610A80E096
:1010500090E0089508956091BE017091BF01809164
:10106000C0019091C1010E94E11E56985E9825989A
:101070002D9826982E9827982F982FE030E03093BF
:1010800089002093880030938B0020938A0030934E
:101090008D0020938C0090E0FC013197E930F10540
:1010A00098F5EA5AFF4F0C942726259A2D9A269AEE
:1010B0002E9A0895259A2D9A25C08FEF90E090934F
:1010C00089008093880090938B0080938A0090938E
:1010D0008D0080938C00259A2D9A08958FEF90E0D3
:1010E000909389008093880090938B0080938A006E
:1010F00090938D0080938C00569A5E9A259A2D9A33
:10110000269A2E9A279A2F9A089581E0089581E0D1
:1011100008950C9487080895282F882339F090E0CB
:101120002A3010F44D9608950697089587E290E0CE
:101130000895BF92CF92DF92EF92FF920F931F9389
:10114000CF93DF938C01FC01C081D181CE010E943D
:101150005C1DBE010E940B0CEC01B8010E948908C5
:10116000882309F4A3C1F80182818823C9F1809101
:101170005E0181111EC0C431F0E7DF0789F50E94CE
:101180008B0881E080935E010E947B1F90935D013C
:1011900080935C01109255011092570110925601F4
:1011A000109259011092580110925B0110925A014D
:1011B0007DC180915C0190915D010E94871F883CF8
:1011C000910570F480915501E82FF0E0EE0FFF1FBC
:1011D000EA5AFE4FD183C0838F5F8093550166C169
:1011E000C13020E8D20708F451C0F8018281882379
:1011F00009F44CC06E01E894D7F880915401813015
:1012000079F050F08230C1F482EE0E94B01487E58C
:101210000E94B01487E50EC082EE0E94B0140CC08C
:1012200080EE0E94B01481EE0E94B01488E10E940A
:10123000B01488E10E9478158CE0E82EF12CC601EC
:101240000E2C02C0969587950A94E2F78F700E9443
:101250008C08B82E0E94B0148B2D0E947815F4E0F3
:10126000EF1AF1082CEFE2162FEFF20641F780910A
:101270005401813029F010F0823041F482EE04C034
:1012800080EE0E94781581EE0E947815C43180E7C7
:10129000D80760F4C23090E7D90780F5C115E0E7C0
:1012A000DE0771F0C130D047F1F0EFC0C33320E763
:1012B000D20709F4BEC0C433D04709F4CEC0E5C09C
:1012C000F8018281882309F4E5C00E943118FFEFFC
:1012D00024E38CE0F15020408040E1F700C00000A2
:1012E0000E94D51FE3C0F8018281882309F4D2C08F
:1012F0008091DB0181608093DB01D8C0F80182819D
:10130000882309F4C7C00E943020811102C00E94C6
:1013100016200E94432090E09093EF018093EE010D
:10132000C230F0E7DF0721F48091EE0181607AC0DE
:10133000C33020E7D20721F48091EE01826072C0B1
:10134000C43080E7D80721F48091EE0184606AC040
:10135000C53090E7D90719F48091EE0127C0C63057
:10136000E0E7DE0721F48091EE0180615BC0C730C9
:10137000F0E7DF0721F48091EE01806253C0C830AE
:1013800020E7D20721F48091EE0180644BC0C93080
:1013900080E7D80721F48091EE01806843C0CA300D
:1013A00090E7D90729F48091EE01846088603AC003
:1013B000CB30E0E7DE0721F48091EE018E7F32C072
:1013C000CC30F0E7DF0721F48091EE018D7F2AC059
:1013D000CD3020E7D20721F48091EE018B7F22C02F
:1013E000CE3080E7D80719F48091EE011AC08091C1
:1013F000EE01CF3090E7D90711F48F7E13C0C031D2
:10140000E0E7DE0711F48F7D0DC0C131F0E7DF07A3
:1014100011F48F7B07C0C231D04711F48F7702C01F
:101420008B7F877F8093EE018091EE010E944720A1
:101430003DC0F8018281882321F01092520182E0A0
:1014400013C080915201811106C086E20E94B0143F
:1014500086E20E94781582E015C0F8018281882317
:1014600031F01092530180E20E94C7151FC0809195
:101470005301811106C087E20E94B01487E20E94E6
:10148000781580E20E94CE1511C081E08093520150
:1014900080935301C801DF91CF911F910F91FF906D
:1014A000EF90DF90CF90BF900C94850880E0DF91A3
:1014B000CF911F910F91FF90EF90DF90CF90BF9051
:1014C00008951F93CF93DF93EC01FE012491222313
:1014D000F1F030E0F901E151F84F1491F901E159CF
:1014E000F74F2491222359F081EE0E94B014812FEE
:1014F0000E94B014812F0E94781581EE04C0812FC4
:101500000E94B014812F0E9478152196DECFDF91C2
:10151000CF911F91089526E0729FF001112444E5B8
:10152000849FE00DF11D1124E60FF11DEE0FFF1F4A
:10153000E15AFE4F859194910E941D0C811520E483
:101540009207B0F5811540E3940708F0DDC0803EB6
:101550009105D8F4803C910508F06BC0883A91055C
:1015600078F4853A910508F06AC08130910509F454
:1015700050C108F40DC18430910508F04AC108C17A
:101580008B3B910508F466C003C18F3F910509F0BC
:1015900048F4803F910508F0ACC0883E910508F4FE
:1015A00038C1F6C0811520E2920708F0A4C0089562
:1015B000811543E5940790F4811522E5920708F020
:1015C000C7C0811541E5940708F0BDC0811520E52D
:1015D000920708F09CC09F70906A0895811545E5B8
:1015E0009407D0F4811524E5920708F0C6C0282F8F
:1015F0002695269540E2249F90011124AC0143706A
:10160000552781E090E002C0880F991F4A95E2F7C4
:10161000822B932B9A680895811546E5940708F468
:10162000B1C09C0130562115304108F0B1C09F7007
:10163000ADC0FC01EE0FFF1FE553F04062C0853ADC
:10164000910509F4A8C0863A910509F4A7C083E87A
:1016500090E40895883A910509F4A3C0893A910568
:1016600009F4A2C08A3A910509F4A1C08B3A910508
:1016700009F4A0C08C3A910509F49FC08D3A9105F8
:1016800009F49EC0803B910509F49DC08E3A9105F6
:1016900009F49CC08F3A910509F49BC0813B9105E8
:1016A00009F49AC0823B910509F499C0833B9105E6
:1016B00009F498C0843B910509F497C0853B9105D6
:1016C00009F496C0863B910509F495C0873B9105C6
:1016D00009F494C0883B910509F493C0893B9105B6
:1016E00009F492C08A3B910509F091C08AE296E420
:1016F0000895906508959F70880F991F855B9E4F90
:10170000FC018591949108959927906C0895482F34
:10171000437021E030E002C0220F331F4A95E2F708
:101720003C68AC0164E0569547956A95E1F74370D3
:10173000342B8F708695869540E2849FC0011124DA
:10174000822B932B0895982F8827816F906A089594
:10175000282F2695269540E2249F90011124AC0164
:101760004370552781E090E002C0880F991F4A9589
:10177000E2F7822B932B9C680895982F8827846F1B
:10178000906A08958F719927982F882790620895FD
:1017900080E090E0089581E890E4089582E890E484
:1017A000089582EE94E4089589EE94E408958AEE13
:1017B00094E4089585EB94E4089586EB94E4089509
:1017C00087EB94E408958CEC94E408958DEC94E414
:1017D000089583E895E408958AE895E4089582E9F8
:1017E00095E4089584E995E4089581E296E40895E6
:1017F00083E296E4089584E296E4089585E296E40F
:10180000089586E296E4089587E296E4089580E0DC
:1018100094E40895089596E0799FF001112494E5E9
:10182000899FE00DF11D1124E60FF11DEE0FFF1F42
:10183000E15AFE4F8591949108958238910549F1BE
:10184000B0F48133910509F459C048F48932910507
:1018500009F44FC08A32910509F455C008958533C3
:10186000910509F441C08933910599F00895833EAB
:10187000910531F138F4803E910591F0823E910559
:10188000A9F00895863E910501F1873E910539F151
:1018900008952091EE0120FD3BC021FD39C008953F
:1018A0008091EE0180FF34C089E341C08091EE0158
:1018B00082FF32C08091EE0184FF2CC080E037C0EF
:1018C0008091EE0182FD28C0F5CF8091EE0183FF6B
:1018D00025C08091EE0184FDF1CF87EE28C0809174
:1018E000EE0183FD1BC0F5CF8091EE0185FF18C08E
:1018F00019C08091EE0185FF15C012C08091EE01E4
:1019000086FF12C013C08091EE0186FF0FC00CC08D
:1019100080EE0DC083EE0BC082EE09C086EE07C0DC
:1019200085E305C089E203C081E301C08AE290E05B
:10193000089508950C94990C80916F010895CF93A8
:10194000DF9300D01F92CDB7DEB72091F401243091
:1019500019F523E029839B838A832093E9008FEF85
:101960009091E800815095FD06C095ED9A95F1F7AC
:1019700000008111F5CF8091E80085FF0DC040E0A7
:1019800050E063E070E0CE0101960E94050F809167
:10199000E8008E778093E8000F900F900F90DF9112
:1019A000CF910895CF93DF9300D01F92CDB7DEB7CC
:1019B0002091F401243021F522E029839B838A833E
:1019C00083E08093E9008FEF9091E800815095FDCE
:1019D00006C095ED9A95F1F700008111F5CF809141
:1019E000E80085FF0DC040E050E063E070E0CE010C
:1019F00001960E94050F8091E8008E778093E800A1
:101A00000F900F900F90DF91CF9108952091F401E6
:101A10002430F1F422E02093E9002FEF3091E80028
:101A2000215035FD06C035ED3A95F1F70000211142
:101A3000F5CF2091E80025FF0BC040E050E065E0C5
:101A400070E00E94050F8091E8008E778093E80097
:101A50000895CF93DF93EC018091F401843009F075
:101A600046C090910C019923D9F090910D019923D2
:101A7000B9F08093E9008FEF9091E800815095FDD7
:101A800006C095E19A95F1F700008111F5CF80919C
:101A9000E80085FF2CC040E050E060E170E017C036
:101AA00081E08093E9008FEF9091E800815095FDEF
:101AB00006C095ED9A95F1F700008111F5CF809160
:101AC000E80085FF14C040E050E068E070E0CE011F
:101AD0000E94050F8091E8008E778093E80080E1F6
:101AE000FE01AFE5B1E001900D928A95E1F7DF913B
:101AF000CF9108958091F301811109C00E94971040
:101B00000E94F4108091E20084608093E2000895C6
:101B10001092F301089508950C949F240E946C1F65
:101B20000E94A5240E9491130C949A0C42E061EC4F
:101B300081E00E94111042E061EC82E00E941110ED
:101B400042E061EC83E00E94111042E161EC84E02C
:101B50000C9411108091F601833009F455C030F4D3
:101B6000813071F0823009F48EC008958A3009F412
:101B70007AC08B3009F460C0893009F09CC020C065
:101B80008091F501813A09F096C08091E800877F45
:101B90008093E8008091F9019091FA01892B21F05E
:101BA00060E080E090E003C060E18FE591E070E0EC
:101BB0000E944E0F8091E8008B778093E800089593
:101BC0008091F501813209F076C08091F901909100
:101BD000FA01009719F0039709F06DC08091E800B1
:101BE000877F8093E8008091E80082FD05C08091A6
:101BF000F4018111F8CF5FC08091F10080936F01F3
:101C00008091E8008B7753C08091F501813A09F00B
:101C100052C08091F9019091FA01892B09F04BC0D3
:101C20008091E800877F8093E8008091E80080FF42
:101C3000FCCF80910C0136C08091F5018132D9F53D
:101C40008091F9019091FA01892BA9F58091E80022
:101C5000877F8093E8000E9446108091F70180936F
:101C60000C010C9431188091F501813221F580919D
:101C7000E800877F8093E8000E9446108091F80179
:101C80008093700108958091F501813AA1F48091CB
:101C9000E800877F8093E8008091E80080FFFCCF18
:101CA000809170018093F1008091E8008E7780939D
:101CB000E8000C944610089584B7877F84BF88E1BC
:101CC0000FB6F89480936000109260000FBE80E819
:101CD00080936100109261000E94E0130E949710AF
:101CE0000E94F4108091E20084608093E200789476
:101CF0000E946F130E94E21382E091E00E948C1315
:101D00000E948D248091F401853069F40E94341F73
:101D10008091F2018823B1F30E945E1F882391F322
:101D20000E94EF0EEFCF0E94E813ECCF292F33274C
:101D300023303105A9F06CF42130310509F442C09B
:101D40002230310509F043C08DE690E023E239E00E
:101D500042C021323105C9F02232310519F137C0B4
:101D600099278130910541F08230910541F0892B0E
:101D700071F5EFE1F9E005C0E7E0F9E002C0EFEE50
:101D8000F8E0849190E09F0126C0643000F5E62FD2
:101D9000F0E0EE0FFF1FEE5DFE4F2081318189E004
:101DA00090E019C0643098F4E62FF0E0DF01AA0F4C
:101DB000BB1FA65EBE4F2D913C91EA5EFE4F808117
:101DC00090E009C082E190E020E939E004C080E0C1
:101DD00090E020E030E0FA0131832083089580E133
:101DE00089BD82E189BD09B400FEFDCF8091D80094
:101DF0008F7D8093D8008091E00082608093E00026
:101E00008091E00081FDFCCF0895CF92DF92EF92A8
:101E1000FF920F931F93CF93DF937C018B01EA0115
:101E20000E946710811131C0209731F0888199811B
:101E3000081B190BE80EF91EC12CD12C0115110538
:101E400019F18091E80085FD14C08091E8008E773B
:101E50008093E800209741F0888199818C0D9D1D29
:101E60009983888385E011C00E946710882331F32D
:101E70000CC0F70181917F018093F100015011099D
:101E8000FFEFCF1ADF0ADACF80E0DF91CF911F9109
:101E90000F91FF90EF90DF90CF9008952091FB017C
:101EA0003091FC012617370748F06115710539F4A8
:101EB0002091E8002E772093E80001C0B901FC01D1
:101EC00020E061157105B9F18091F401882309F4CE
:101ED00040C0853009F43FC08091E80083FD3DC0DB
:101EE0008091E80082FF06C08091E80082FF26C052
:101EF00080E008958091E80080FFE3CF2091F30017
:101F00008091F20090E0922B6115710551F08830BC
:101F1000910538F421912093F100615071090196E7
:101F2000F3CF21E0089709F020E08091E8008E7758
:101F30008093E800C6CF2111C7CFD6CF8091F4019E
:101F4000882339F0853039F08091E80083FFCCCFC9
:101F500004C082E0089583E0089581E0089520910F
:101F6000FB013091FC012617370748F06115710518
:101F700039F42091E8002E772093E80001C0B901E0
:101F8000FC0120E061157105C1F18091F401882305
:101F900009F441C0853009F440C08091E80083FD18
:101FA0003EC08091E80082FF06C08091E80082FF79
:101FB00027C080E008958091E80080FFE3CF209162
:101FC000F3008091F20090E0922B6115710559F0B9
:101FD0008830910540F424912093F10031966150AE
:101FE00071090196F2CF21E0089709F020E0809175
:101FF000E8008E778093E800C5CF2111C6CFD5CFFA
:102000008091F401882339F0853039F08091E8001F
:1020100083FFCBCF04C082E0089583E0089581E080
:102020000895982F973058F59093E900981739F054
:102030007091EC002091ED005091F00003C0242F2E
:10204000762F50E021FF19C03091EB003E7F309396
:10205000EB003091ED003D7F3093ED003091EB00CF
:1020600031603093EB007093EC002093ED005093BF
:10207000F0002091EE0027FF07C09F5FD3CF8F7045
:102080008093E90081E0089580E008958091F50152
:1020900087FD05C08091E80080FF0EC012C08091CE
:1020A000E80082FD05C08091F4018111F8CF089508
:1020B0008091E8008B7708C08091F4018111EACF0C
:1020C00008958091E8008E778093E80008958091CC
:1020D000E4009091E50045E62091EC0020FF21C04E
:1020E0002091E80020FD21C02091F401222389F0F5
:1020F000253089F02091EB0025FD0FC02091E400F0
:102100003091E5002817390739F3415041F0C901F2
:10211000E3CF82E0089583E0089581E0089584E0AC
:1021200008952091E80022FFDFCF80E008950E940B
:1021300005110E940D11E0EEF0E080818160808346
:10214000E8EDF0E080818F77808319BCA7EDB0E0E7
:102150008C918E7F8C9380818F7E80831092F3018F
:1021600008950F931F93CF93DF930E9405110E9450
:102170000D11C8EDD0E088818F77888388818068D1
:10218000888388818F7D888319BC1092F401109216
:10219000F0011092F2011092F10100EE10E0F8014E
:1021A00080818B7F808388818160888342E060E0CA
:1021B00080E00E941110E1EEF0E080818E7F80834C
:1021C000E2EEF0E08081816080838081886080839E
:1021D000F80180818E7F8083888180618883DF9190
:1021E000CF911F910F910895E8EDF0E080818F7EEF
:1021F0008083E7EDF0E080818160808384E082BFAE
:1022000081E08093F3010C94B110E8EDF0E080815F
:102210008E7F80831092E20008951092DA0010926F
:10222000E10008951F920F920FB60F9211242F9381
:102230003F934F935F936F937F938F939F93AF934E
:10224000BF93EF93FF938091E10082FF0BC08091D9
:10225000E20082FF07C08091E1008B7F8093E10064
:102260000E946E138091DA0080FF1FC08091D80019
:1022700080FF1BC08091DA008E7F8093DA0080910E
:10228000D90080FF0DC080E189BD82E189BD09B41C
:1022900000FEFDCF81E08093F4010E947A0D05C01D
:1022A00019BC1092F4010E94880D8091E10080FF1A
:1022B00019C08091E20080FF15C08091E2008E7FFE
:1022C0008093E2008091E20080618093E20080913F
:1022D000D80080628093D80019BC85E08093F40117
:1022E0000E948C0D8091E10084FF30C08091E2005B
:1022F00084FF2CC080E189BD82E189BD09B400FE64
:10230000FDCF8091D8008F7D8093D8008091E1002F
:102310008F7E8093E1008091E2008F7E8093E200C7
:102320008091E20081608093E2008091F001882337
:1023300011F084E007C08091E30087FF02C083E0D2
:1023400001C081E08093F4010E948E0D8091E10034
:1023500083FF29C08091E20083FF25C08091E100C6
:10236000877F8093E10082E08093F4011092F00176
:102370008091E1008E7F8093E1008091E2008E7F6A
:102380008093E2008091E20080618093E20042E06D
:1023900060E080E00E9411108091F00088608093DE
:1023A000F0000E948B0DFF91EF91BF91AF919F9133
:1023B0008F917F916F915F914F913F912F910F90EE
:1023C0000FBE0F901F9018951F920F920FB60F928D
:1023D00011242F933F934F935F936F937F938F932A
:1023E0009F93AF93BF93CF93EF93FF93C091E90077
:1023F000CF708091EC001092E9008091F000877F0F
:102400008093F00078940E9420121092E90080914D
:10241000F00088608093F000C093E900FF91EF9195
:10242000CF91BF91AF919F918F917F916F915F916C
:102430004F913F912F910F900FBE0F901F901895C5
:102440001F93CF93DF93CDB7DEB7AA970FB6F8945B
:10245000DEBF0FBECDBFE5EFF1E08091F1008193CB
:1024600021E0ED3FF207C9F70E94AA0D8091E80034
:1024700083FF1CC12091F5013091F601832F90E07C
:102480008A30910508F012C1FC01E15AFF4F0C940B
:102490002726203881F0223809F008C18091F901FF
:1024A0008F708093E9008091EB0085FB882780F98D
:1024B0001092E90006C08091F1019091F201911112
:1024C00082609091E800977F9093E8008093F100FC
:1024D0001092F100C5C0822F8D7F09F0E7C0222342
:1024E00019F0223061F0E2C08091F701813009F0EB
:1024F000DDC0333009F080E08093F20128C0809184
:10250000F701811124C02091F9012F7009F4CEC088
:102510002093E9008091EB0080FF19C08091EB00CF
:10252000333011F4806211C080618093EB0081E050
:1025300090E0022E01C0880F0A94EAF78093EA0027
:102540001092EA008091EB0088608093EB0010927B
:10255000E9008091E800877F86C02111A7C0109113
:10256000F7011F778091E3008078812B8093E3004F
:102570008091E800877F8093E8000E944610809158
:10258000E80080FFFCCF8091E30080688093E30047
:10259000112311F083E001C082E08093F40186C032
:1025A0002058223008F082C08091F7019091F80104
:1025B0008C3D23E0920779F583E08A838AE2898360
:1025C0004FB7F894DE01139620E03EE051E2E32F8E
:1025D000F0E050935700E49120FF03C0E295EF70C4
:1025E0003F5FEF708E2F90E0EA3010F0C79601C089
:1025F000C0968D939D932F5F243149F74FBF8091F3
:10260000E800877F8093E8006AE270E0CE010196DF
:102610000E944E0F14C0AE014F5F5F4F6091F901F1
:102620000E94960E009709F441C02091E800277F90
:102630002093E800BC0189819A810E94AF0F8091AC
:10264000E8008B778093E80031C0203879F58091DD
:10265000E800877F8093E8008091F0018093F1008B
:102660008091E8008E778093E8000E9446101EC09B
:1026700021111CC09091F7019230C0F48091E800C4
:10268000877F8093E8009093F0010E94461080912C
:10269000F001811104C08091E30087FF02C084E053
:1026A00001C081E08093F4010E94960D8091E800C2
:1026B00083FF0AC08091E800877F8093E8008091C3
:1026C000EB0080628093EB00AA960FB6F894DEBF11
:1026D0000FBECDBFDF91CF911F9108950895CF9385
:1026E0008091F4018823B1F08091E9008F7090917E
:1026F000EC0090FF02C090E801C090E0C92FC82B09
:102700001092E9008091E80083FD0E942012CF70B2
:10271000C093E900CF91089590937601809375015D
:102720000895E0917501F0917601309721F00190C4
:10273000F081E02D099480E00895E0917501F09119
:102740007601309721F00280F381E02D09940895FD
:10275000E0917501F0917601309721F00480F581C8
:10276000E02D09940895209173013091740182172E
:10277000930771F09093740180937301E091750158
:10278000F0917601309721F00680F781E02D0994D1
:10279000089520917101309172018217930771F0B1
:1027A0009093720180937101E0917501F09176012F
:1027B000309721F00084F185E02D09940895089563
:1027C0000C94DF130E94721F0E942F060C94F81FB6
:1027D0009F92AF92BF92CF92DF92EF92FF920F93B0
:1027E0001F93CF93DF9300D000D000D0CDB7DEB7DA
:1027F0000E94560686E8E82E81E0F82E0DE010E0F3
:10280000CC24C394D12C902E802F0E944307F70133
:10281000B2907F01B826A1F401501109A0F78FEF03
:1028200089838A831B820E947B1F8160782F9D830E
:102830008C8349815A816B818D810E94821431C0C1
:102840009091DB0191FF04C08E830E9449078E8125
:1028500025E030E0A601022E01C0440F0A94EAF7F9
:10286000A42E4B21D1F029839A828A2191E009F488
:1028700090E09B830E947B1F8160782F9D838C83D7
:1028800049815A816B818D810E948214F801E85838
:10289000FE4F80818A25808304C021503109D0F603
:1028A000BBCF0E94C521109177010E949113181788
:1028B000B9F00E9491138093770126960FB6F89491
:1028C000DEBF0FBECDBFDF91CF911F910F91FF9063
:1028D000EF90DF90CF90BF90AF909F900C949A0CA8
:1028E00026960FB6F894DEBF0FBECDBFDF91CF9115
:1028F0001F910F91FF90EF90DF90CF90BF90AF901E
:102900009F900895CF93DF93CDB7DEB72B970FB687
:10291000F894DEBF0FBECDBF4F83588769877A8793
:102920008B87DE01119686E0FD0111928A95E9F709
:1029300085E0FE01379601900D928A95E1F7498175
:102940005A816B817C818D819E810E94011B2B9617
:102950000FB6F894DEBF0FBECDBFDF91CF910895C3
:10296000CF93C82F882309F4C1C0823859F40E943C
:10297000911381FDBBC089E30E94DC1D0E94A61E4D
:1029800089E30CC0833879F40E94911380FDAEC0B6
:1029900083E50E94DC1D0E94A61E83E50E941C1E8A
:1029A000CF910C94A61E843859F40E94911382FD95
:1029B0009DC087E40E94DC1D0E94A61E87E4EECF26
:1029C0008CEF8C0F813A48F48C2F0E94F5238111F3
:1029D0008DC08C2F0E94DC1DE3CF80E28C0F8830ED
:1029E00048F4C77081E001C0880FCA95EAF70E94D9
:1029F0005D1ED6CF8BE58C0F833078F4C53A29F075
:102A0000C63A31F482E890E005C081E890E002C067
:102A100083E890E0CF910C94B31388E58C0F833159
:102A200008F064C0C83A39F1C93A41F1CA3A49F1EB
:102A3000CB3A51F1CC3A59F1CD3A61F1C03B69F151
:102A4000CE3A71F1CF3A79F1C13B81F1C23B89F1C4
:102A5000C33B91F1C43B99F1C53BA1F1C63BA9F140
:102A6000C73BB1F1C83BB9F1C93BC1F1CA3BC9F59C
:102A70008AE292E038C082EE90E035C089EE90E0C4
:102A800032C08AEE90E02FC085EB90E02CC086EB40
:102A900090E029C087EB90E026C08CEC90E023C04A
:102AA0008DEC90E020C083E891E01DC08AE891E0C1
:102AB0001AC082E991E017C084E991E014C081E274
:102AC00092E011C083E292E00EC084E292E00BC07B
:102AD00085E292E008C086E292E005C087E292E0DB
:102AE00002C080E090E0CF910C94C913CF9108957B
:102AF000882309F44BC0823859F40E94911381FF56
:102B000045C089E30E94DC1D0E94A61E89E30CC01B
:102B1000833871F40E94911380FF38C083E50E94CE
:102B2000DC1D0E94A61E83E50E941C1E0C94A61E9E
:102B3000843859F40E94911382FF28C087E40E94D0
:102B4000DC1D0E94A61E87E4EFCF9CEF980F913A00
:102B500058F390E2980F983050F4877091E001C0DC
:102B6000990F8A95EAF7892F0E94631EDFCF9BE5B4
:102B7000980F933020F480E090E00C94B313885ABF
:102B8000833120F480E090E00C94C91308958823E9
:102B900021F00E945D1E0C94A61E0895882321F04A
:102BA0000E94631E0C94A61E08958F929F92AF926E
:102BB000BF92CF92DF92EF92FF920F931F93CF932A
:102BC000DF931F92CDB7DEB74C01A62E472FFC0135
:102BD000E580E2948FE0E822F280FF2021F0798303
:102BE0000E947A1E498149830E94D51D498188230C
:102BF00081F0FF2071F080E28A0D883050F082E091
:102C00000E94BE1D0E94D51DBB24B394B8264981E5
:102C100001C0B12CE42FE295EF70F0E0E759FF4FCF
:102C20000C942726842F807F142F1F70882311F087
:102C30001295107FFF2089F0112309F48DC180E2E5
:102C40008A0D883020F4812F0E945D1E03C0812FE1
:102C50000E946D1E0E94A61E7FC18A2D0E947815BB
:102C6000112309F490C180E28A0D883020F4812F6D
:102C70000E94631E03C0812F0E94731E0E94A61E25
:102C800082C1242F207F842F8F70203211F08295F3
:102C9000807FAA2021F0F1E0AF16B9F020C0FF201C
:102CA00049F0EE2009F40FC191E0E9120CC10E9435
:102CB0008D1E69C1EE2021F0E1E0EE1609F463C13A
:102CC00089830E94901E898104C1FF2029F0F1E0D0
:102CD000FE1508F458C1F7C0E11055C1FAC0FF2035
:102CE00021F0EE2009F4EFC037C1EE2009F4F1C065
:102CF00039C1242F26952695237030E02115310502
:102D000021F02130310561F03EC1FF2021F08A2DF4
:102D1000942F937002C080E090E00E94B31333C1FF
:102D2000FF2021F08A2D942F937002C080E090E064
:102D30000E94C91328C18A2DFF2019F00E94CD20BE
:102D400002C00E9435210E94BA211DC1842F8370C8
:102D500009F04EC0F11017C12A2D22952695277033
:102D6000220F220F8A2D8F70C82ED12CE12CF12C2E
:102D7000022E04C0CC0CDD1CEE1CFF1C0A94D2F702
:102D8000A4FE10C06FE070E080E090E004C0660F29
:102D9000771F881F991F2A95D2F7609570958095A7
:102DA000909503C060E070E0CB01242F2695269516
:102DB000237030E02230310569F02330310589F08D
:102DC0006C297D298E299F292130310571F00E94BF
:102DD000531CD9C06C297D298E299F290E946D1C06
:102DE000D2C00E94531CC701B6010E94391CCBC03F
:102DF000FF2019F0842F817001C08695882309F483
:102E0000C2C02A2D229526952770220F220F8A2DC7
:102E10008F70C82ED12CE12CF12C022E04C0CC0CCA
:102E2000DD1CEE1CFF1C0A94D2F7A4FE10C06FE05C
:102E300070E080E090E004C0660F771F881F991F44
:102E40002A95D2F7609570958095909503C060E0C3
:102E500070E0CB01242F26952695237030E0223098
:102E6000310569F02330310589F06C297D298E29DF
:102E70009F292130310571F00E94271D84C06C29E3
:102E80007D298E299F290E94411D7DC00E94271DFA
:102E9000C701B6010E940D1D76C00A2D10E0F80191
:102EA000E05EF109E531F10508F052C0E758FF4F47
:102EB0000C9427261A2D1F70842F8F71FF2031F05C
:102EC0000E94A61C812F0E94C7155DC00E94C71CCE
:102ED000812F0E94CE1557C0FF2039F0E11053C05A
:102EE000842F8F710E94EC1C4EC081E08E1508F477
:102EF0004AC0F6CFFF2039F0842F8F710E94A61CA4
:102F000042C0FF20C9F3842F8F710E94C71C3BC0B1
:102F1000FF2029F0842F8F710E94911C34C00E94E1
:102F2000871C31C0FF2051F0142F1F71812F0E9488
:102F3000A61C63E0812F0E94B51D25C081E00E9480
:102F4000BE1D91E09E15F8F482E00E94BE1D1BC0DC
:102F5000FF2031F0EE2081F28A2D0E94B01413C0C0
:102F6000EE2089F28A2D0E9478150DC04F706A2DCF
:102F7000C4010E941D080E94AE1B05C04F706A2D3F
:102F8000C4010E940A0CBB20F1F00E94B11D80FD1B
:102F90001AC0F40112820E94AB1D0E94A61CC4013B
:102FA0000E94F1170E94AB1D0F90DF91CF911F91EE
:102FB0000F91FF90EF90DF90CF90BF90AF909F90D8
:102FC0008F900C94C71C0F90DF91CF911F910F91A0
:102FD000FF90EF90DF90CF90BF90AF909F908F9039
:102FE00008950F931F93CF93DF93EC0128813981CC
:102FF0008B819C81892B31F03F3F11F080E003C031
:103000002F3FE1F781E0811113C0CE010E949908A2
:10301000882371F0688179818A810E94A71D8C01C3
:103020000E945B1D0E942E1CB801CE010E94D51586
:10303000DF91CF911F910F9108950E947A1E0E94F7
:103040008A1E0E944F1E0E94A61E0E9466220E9497
:10305000BA2180E090E00E94B31380E090E00C94ED
:10306000C9130E946A1E0C941D180E949C1D292FD2
:1030700022952F7030E02C3031054CF42A30310588
:103080006CF42250310922303105B0F407C02C30E5
:10309000310571F02F30310559F00EC0803F31F00D
:1030A00018F4803E48F402C0843F31F481E0089572
:1030B00093FB882780F9089580E00895CF93DF93EC
:1030C00000D000D01F92CDB7DEB70F900F900F90B9
:1030D0000F900F90DF91CF910895CF93DF9300D0A1
:1030E00000D000D0CDB7DEB726960FB6F894DEBF7D
:1030F0000FBECDBFDF91CF9108951F93CF93DF9384
:10310000C091860116E080918701C81799F0D0E040
:103110001C9FF0011D9FF00D1124E857FE4F4081C8
:10312000518162817381848195810E946D182196FD
:10313000C770E9CFDF91CF911F9108954091B801F9
:103140005091B9016091BA017091BB018091BC01AD
:103150009091BD010C946D18CF938091BD01829523
:103160008F7009F05FC08091BA01882309F45AC0BA
:1031700020918601A09187016091B8017091B901F9
:103180008091BB019091BC0131E06F3F09F030E0CC
:10319000B32FC6E02A1709F445C0009721F07F3FFE
:1031A00021F44B2F03C041E001C040E030E040FD7E
:1031B00035C0C29FF001C39FF00D1124E857FE4FA8
:1031C000418174132BC04081641328C04281411196
:1031D00025C0438154814817590710F441505109C3
:1031E000481B590B483C5105C8F48091BD018F70B4
:1031F00080618093BD0186E0829FF001839FF00D86
:103200001124E357FE4F80818F708061808388EBAB
:1032100091E00E94F117CF910C947D182F5F3F4FE2
:103220002770B8CFCF910895CF92DF92EF92FF929F
:103230000F931F93CF93DF93CDB7DEB762970FB68F
:10324000F894DEBF0FBECDBF8C0185E0F801DE0132
:103250001D9601900D928A95E1F7D8014C91119637
:103260005C91119712966C9112971396ED90FC90C9
:1032700014977091B801E091B9012091BB01309190
:10328000BC012115310531F0EF3F31F481E07F3F82
:1032900019F403C081E001C080E0B82FB170CB2EDB
:1032A00080FD6CC1D090BA01DD2009F4F5C0F09129
:1032B000BD01E216F30638F0C701821B930B883C70
:1032C000910548F09BC0209530952E0D3F1D283C60
:1032D000310508F093C08F2F807F09F052C0E513AD
:1032E00014C0741312C0D62E61110FC0FF70F061AC
:1032F000F093BD010E949E1888EB91E00E94F117A7
:103300008091BD01F80185836CC1EF2831F05F3FEA
:1033100031F481E04F3F19F403C081E001C080E047
:1033200080FD03C081E0862701C080E0F82FF170A6
:10333000FF2E80FF1CC0809186012091870136E01E
:10334000821709F428C190E0389FF001399FF00DF1
:103350001124E857FE4F7181571306C0708147133F
:1033600003C07281671303C001968770E9CFD62E20
:10337000662309F436C18091BD0181608093BD014F
:1033800053C0E51308C0741306C0611104C0D8010E
:103390001596FC93AEC04D875E878D859E856A8BA2
:1033A0000E9435186A89882329F1D62E662311F1E7
:1033B0002091BD01822F82958F7090E002970CF4CE
:1033C00060C08091B8019091B90198878F83198668
:1033D000FB86EA862C87CE01079651C0E51731F1AE
:1033E0004D875E878D859E856A8B0E9435186A8918
:1033F00081112EC0C8010E94F117A4C08F2F807FB9
:1034000069F77E2DF98AE88A89890E945E1888EB1F
:1034100091E00E94F117E8EBF1E086E0DF011D92F8
:103420008A95E9F70E949E18D12CDBC07413D8CF7F
:103430006111D6CFD8011596FC93C8010E94F117EF
:10344000E8EBF1E086E0DF011D928A95E9F7C9C05B
:10345000D62E662379F22091BD01822F82958F703E
:1034600090E0029774F08091B8019091B9019A832D
:1034700089831B82FD82EC822E83CE0101960E94FD
:10348000F11786E0F801A8EBB1E001900D928A9562
:10349000E1F70E94AC186FC0E216F30628F0C701EE
:1034A000821B930B9C0104C0209530952E0D3F1D6F
:1034B000283C310508F052C0D62E662309F49ACF75
:1034C000E5132CC074132AC08091BD0180FD1DC07E
:1034D000982F92959F70C9F0D80115968C931597E7
:1034E0009F3039F09F5F9295907F8F70892B159652
:1034F0008C93C8010E94F11786E0F801A8EBB1E0B7
:1035000001900D928A95E1F736C086E0F801A8EBAC
:10351000B1E001900D928A95E1F763C04D875E8717
:103520008D859E850E943518882379F086E0F80104
:10353000A8EBB1E001900D928A95E1F70E94AC18DA
:103540000E949E18DD24D3944CC08091BD018160FF
:103550008093BD01C8010E94F11743C07E2DF98AF6
:10356000E88A89890E945E18E8EBF1E086E0DF01D5
:103570001D928A95E9F70E949E1833C0662309F4CC
:1035800039CF4D875E878D859E850E9435188823AB
:1035900009F430CFCBCF4D875E878D859E850E9405
:1035A0009C1D292F22952F7030E0223031052CF4FC
:1035B0009F7041F0811106C00CC0243031052CF4FD
:1035C0009F7049F4805E883020F0C8010E94F11796
:1035D000CF2CDC2C06C0D80115969C91907F91F7DA
:1035E000F8CF8D2D62960FB6F894DEBF0FBECDBF1B
:1035F000DF91CF911F910F91FF90EF90DF90CF90CF
:1036000008951F93CF93DF93CDB7DEB72C970FB6F6
:10361000F894DEBF0FBECDBF4F83588769877A8786
:103620008B879C87CE0107960E9414198823C1F0CE
:103630002F8138858A859B85892B31F03F3F11F09A
:1036400080E003C02F3FE1F781E0811147C04F8147
:10365000588569857A858B859C850E946D183EC04A
:1036600086E0FE013796DE01119601900D928A9553
:10367000E1F7FF81E8854A855B854115510531F009
:10368000EF3F31F481E0FF3F19F403C081E001C056
:1036900080E080FD23C02091870130E0C9010196C0
:1036A000877099276091860170E086179707F1F17E
:1036B000F983EA835D834C8396E0929FD001939FC8
:1036C000B00D1124A857BE4FFE01319601900D9206
:1036D0009A95E1F7809387010E947D1816E080910A
:1036E000860190918701891779F1189FC0011124F3
:1036F00088579E4F0E941419882331F1E09186016A
:103700001E9FF0011124E857FE4F408151816281D4
:103710007381848195810E946D188091860190E06B
:1037200001968770992780938601D9CF0E9431181E
:103730001092870110928601E8EBF1E086E0DF014C
:103740001D928A95E9F7CACF2C960FB6F894DEBF82
:103750000FBECDBFDF91CF911F910895EF92FF92E1
:103760000F931F93CF93DF93FC01009709F46FC071
:10377000F12CEE24E394EF0121968491843740F4F8
:10378000843008F055C0813081F0823021F15FC073
:10379000853709F447C0C0F19CE7980F903708F0CF
:1037A00056C08F770E94781545C08F010E5F1F4F5E
:1037B000FE01849190E2980F983050F48770FE2DAE
:1037C00001C0FF0F8A95EAF78F2F0E947D1E15C05A
:1037D0000E94B01414C08F010E5F1F4FFE01849130
:1037E00090E2980F983068F48770FE2D01C0FF0FAB
:1037F0008A95EAF78F2F0E94831E0E94A61EE80179
:1038000019C00E947815FBCFCF010296FE01C4912A
:10381000CC2361F0EFE9FFE03197F1F700C0000041
:10382000C150F6CFCF010296FE01F490EC0102C028
:103830000E94B0148F2D882341F0EFE9FFE031970B
:10384000F1F700C000008150F6CFFE0194CFDF9168
:10385000CF911F910F91FF90EF900895089560937D
:10386000C2017093C3018093C4019093C5010C946D
:103870001D180F931F930091C2011091C301209155
:10388000C4013091C501062B172B282B392B00932F
:10389000C2011093C3012093C4013093C5011F914D
:1038A0000F910C941D180F931F930091C20110915A
:1038B000C3012091C4013091C50106231723282399
:1038C00039230093C2011093C3012093C4013093A4
:1038D000C5011F910F910C941D180F931F93009118
:1038E000C2011091C3012091C4013091C501062786
:1038F0001727282739270093C2011093C30120936B
:10390000C4013093C5011F910F910C941D181092A2
:10391000BE011092BF011092C0011092C1010C941F
:103920001D1841E050E060E070E004C0440F551FF6
:10393000661F771F8A95D2F74093BE015093BF014F
:103940006093C0017093C1010C941D1841E050E0D8
:1039500060E070E004C0440F551F661F771F8A9512
:10396000D2F78091BE019091BF01A091C001B091AA
:10397000C101842B952BA62BB72B8093BE0190936E
:10398000BF01A093C001B093C1010C941D1841E088
:1039900050E060E070E004C0440F551F661F771FC1
:1039A0008A95D2F740955095609570958091BE01AB
:1039B0009091BF01A091C001B091C10184239523D2
:1039C000A623B7238093BE019093BF01A093C001AB
:1039D000B093C1010C941D1841E050E060E070E02C
:1039E00004C0440F551F661F771F8A95D2F7809138
:1039F000BE019091BF01A091C001B091C101842787
:103A00009527A627B7278093BE019093BF01A09367
:103A1000C001B093C1010C941D180F931F93009126
:103A2000BE011091BF012091C0013091C101062B50
:103A3000172B282B392B0093BE011093BF01209325
:103A4000C0013093C1011F910F910C941D180F9369
:103A50001F930091BE011091BF012091C0013091D0
:103A6000C10106231723282339230093BE01109395
:103A7000BF012093C0013093C1011F910F910C949D
:103A80001D180F931F930091BE011091BF0120914B
:103A9000C0013091C1010627172728273927009335
:103AA000BE011093BF012093C0013093C1011F914B
:103AB0000F910C941D180895CF92DF92EF92FF9210
:103AC0000F931F93CF93DF93EC01C090C201D0906E
:103AD000C301E090C401F090C5018091BE019091B6
:103AE000BF01A091C001B091C101C82AD92AEA2A18
:103AF000FB2A0FE110E0B701A601002E04C0769565
:103B00006795579547950A94D2F740FD05C0015037
:103B1000110988F780E007C0BE01802F0E948B0A40
:103B20000197A9F3802FDF91CF911F910F91FF9003
:103B3000EF90DF90CF900895CF93DF93EC010E9438
:103B40005C1DBE010E948B0ADF91CF910895CB01CD
:103B50000E949C1D08958091C60185958595859547
:103B600008958091C6018770089598E0899F90011B
:103B70001124622B6093C6010C94A61C4091C601CF
:103B8000809584238093C601982F977069F450E044
:103B9000282F332727FD30954217530729F08595A5
:103BA000859585950C94C71C08959091C6019770D2
:103BB00081E009F480E0089590910C019923D9F0F7
:103BC00090910D019923B9F0982F96959695969519
:103BD0009F3088F5E0910E01F0910F01E90FF11D82
:103BE000877021E030E001C0220F8A95EAF78181D9
:103BF000822B8183089540910E0150910F0120E0A6
:103C000030E09FEFFA01E20FF31F6281681799F02D
:103C10009F3F19F4611101C0922F2F5F3F4F2E304B
:103C2000310581F79F3F39F0FA01E90FF11D97FD4A
:103C3000FA9582830895089590910C019923E1F0FB
:103C400090910D019923C1F0982F96959695969590
:103C50009F3020F5E0910E01F0910F01E90FF11D69
:103C6000877021E030E001C0220F8A95EAF72095A5
:103C7000818128232183089540910E0150910F01E5
:103C800020E030E0FA01E20FF31F9281981301C0A7
:103C900012822F5F3F4F2E303105A1F7089581E04A
:103CA00090E0E0910E01F0910F01E80FF91F1082F2
:103CB000019680319105A9F708959091DA01982B2A
:103CC0009093DA01089580959091DA01982390936A
:103CD000DA0108951092DA0108959091D901982B94
:103CE0009093D901089580959091D901982390934C
:103CF000D90108951092D90108959091D801982B77
:103D00009093D801089580959091D801982390932D
:103D1000D80108951092D80108958093C70108959D
:103D20001092C701089540910E0150910F0120E0BB
:103D300030E080E0FA01E20FF31F918191118F5F73
:103D40002F5F3F4F2F303105A9F70895E0910E0105
:103D5000F0910F018091DA018083E0910E01F091E2
:103D60000F0180819091D901892B8083E0910E0110
:103D7000F0910F0180819091D801892B80839091DF
:103D8000C701992361F0E0910E01F0910F0180814C
:103D9000892B80830E94931E81111092C70180910C
:103DA0000E0190910F010C949D1340E0009739F0A3
:103DB0009C0121503109822393234F5FF7CF842F39
:103DC0000895CF92DF92EF92FF920F931F936C01B1
:103DD000EE24FF24C114D104E104F10421F46B01A9
:103DE0007C0180E001C080E133272F2D1E2D0D2D99
:103DF000011511052105310519F0885F6801790168
:103E000097018601A4E03695279517950795AA9501
:103E1000D1F7011511052105310519F08C5F6801F5
:103E2000790197018601F2E0369527951795079558
:103E3000FA95D1F7011511052105310519F08E5FAD
:103E400068017901B701A601769567955795479561
:103E5000452B462B472B09F08F5F1F910F91FF9049
:103E6000EF90DF90CF9008958091F401843021F19C
:103E70001092DC0120E488E190E00FB6F894A89558
:103E8000809360000FBE2093600080E00E949A0C37
:103E900083B7817F846083BF83B7816083BF789459
:103EA000889583B78E7F83BF88E10FB6F89480939F
:103EB0006000109260000FBE089508950E944306AE
:103EC0000E9456060E945D1F0E944A0791E08111E0
:103ED00001C090E0892F08950E9431180E9491132B
:103EE0000C949A0C82E084BD93E095BD9AEF97BD47
:103EF00080936E0008952FB7F8948091DD01909122
:103F0000DE01A091DF01B091E0012FBF0895CF92B3
:103F1000DF92EF92FF920F931F932FB7F894409187
:103F2000DD015091DE016091DF017091E0012FBF52
:103F30006A017B01EE24FF248C0120E030E0C016F2
:103F4000D106E206F30610F441505109481B590B03
:103F5000CA011F910F91FF90EF90DF90CF900895CD
:103F60001F920F920FB60F9211248F939F93AF93CE
:103F7000BF938091DD019091DE01A091DF01B091AE
:103F8000E0010196A11DB11D8093DD019093DE013A
:103F9000A093DF01B093E001BF91AF919F918F910A
:103FA0000F900FBE0F901F9018950E949710F894D5
:103FB0002FEF87EA91E6215080409040E1F700C062
:103FC000000087E090EBDC018093FD019093FE01FF
:103FD000A093FF01B09300022CE088E190E00FB6BF
:103FE000F894A895809360000FBE20936000FFCFE7
:103FF0000E943020811102C00E9416200E943B20A6
:104000008093DB010E94432090E09093EF01809326
:10401000EE0187FB882780F980930D010E943F20E5
:10402000682F70E080E090E00C942F1C6DEE7EEF26
:1040300080E090E00E94612660E082E090E00E94D3
:104040004F2660E083E090E00E944F2660E084E02D
:1040500090E00E944F2660E085E090E00C944F26AF
:1040600080E090E00E94492621E08D3E9E4F09F0BD
:1040700020E0822F089582E090E00C94412683E0B6
:1040800090E00C94412684E090E00C944126682F47
:1040900084E090E00C944F268091E30180FF0BC0F8
:1040A0006091130185E0689FB001112475956795B3
:1040B000759567952AC081FF09C06091130185E05D
:1040C000689FB0011124759567951FC082FF07C0D6
:1040D0006091130185E0689FB001112416C04091E2
:1040E000E4014423C9F060911201461788F720913A
:1040F000130185E0289F90011124429FC001439F36
:10410000900D112470E00E9413266038710540F470
:104110006115710539F002C065E070E0862F0895E1
:104120008FE7089581E008958091E30180FF08C042
:104130006091110170E0759567957595679521C03F
:1041400081FF06C06091110170E07595679519C0F7
:1041500082FF04C06091110170E010C08091E40101
:104160008823C1F0609110018617A0F7909111018A
:10417000989FC001112470E00E94132660387105D9
:1041800028F46115710521F0862F08958FE70895B1
:1041900081E0089561E070E0F4CF803F21F40E9457
:1041A0004C20819504C0813F29F40E944C208093CB
:1041B000E7010895823F21F40E944C20819504C0BC
:1041C000833F29F40E944C208093E6010895893FA3
:1041D00019F40E94942005C08A3F31F40E94942073
:1041E00081958093E80108958B3F21F40E949420EB
:1041F000819504C08C3F29F40E9494208093E901AA
:104200000895843F21F48091E501816017C0853FC6
:1042100021F48091E501826011C0863F21F48091F4
:10422000E50184600BC0873F21F48091E50188603F
:1042300005C0883F31F48091E50180618093E501FC
:1042400008958D3F21F48091E30181600BC08E3F82
:1042500021F48091E301826005C08F3F29F48091B1
:10426000E30184608093E3010895803F39F48091F5
:10427000E70187FF6CC01092E70169C0813F29F414
:104280008091E7011816BCF362C09091E601823F6D
:1042900029F497FF5CC01092E60159C0833F19F4DE
:1042A0001916CCF354C0893F41F48091E8011816E7
:1042B0000CF04DC01092E8014AC08A3F29F4809169
:1042C000E80187FF44C0F6CF8B3F39F48091E901C4
:1042D00087FF3DC01092E9013AC08C3F29F48091DC
:1042E000E9011816BCF333C0843F21F48091E50145
:1042F0008E7F17C0853F21F48091E5018D7F11C02D
:10430000863F21F48091E5018B7F0BC0873F21F42C
:104310008091E501877F05C0883F31F48091E501F8
:104320008F7E8093E50113C08D3F21F48091E301DE
:104330008E7F0BC08E3F21F48091E3018D7F05C0FD
:104340008F3F29F48091E3018B7F8093E30180917B
:10435000E60181110EC08091E70181110AC08091B0
:10436000E801811106C08091E901811102C010921B
:10437000E401089585EE91E00E94A8130E947B1F3E
:104380009093E2018093E10108951F93CF93DF930F
:104390008091E1019091E2010E94871F4091E40128
:1043A000442321F02091140130E006C02091150132
:1043B0005AE0259F900111248217930708F482C0C8
:1043C0008091E6011091E701D091E801C091E901E7
:1043D000811107C0111105C0D11103C0CC2309F40C
:1043E00071C04F3F19F04F5F4093E401181624F459
:1043F0000E944C208093E6018091E60187FF05C072
:104400000E944C2081958093E601111624F40E94AD
:104410004C208093E7018091E70187FF05C00E944F
:104420004C2081958093E7016091E601662339F184
:104430001091E701112319F1772767FD7095872FF8
:10444000972F0E94242523E333E343E35FE30E9495
:1044500088250E94F1246093E601612F772767FD8C
:104460007095872F972F0E94242523E333E343E39E
:104470005FE30E9488250E94F1246093E7011D16E6
:1044800024F40E9494208093E8018091E80187FF42
:1044900005C00E94942081958093E8011C1624F4A5
:1044A0000E9494208093E9018091E90187FF05C073
:1044B0000E94942081958093E901DF91CF911F9113
:1044C0000C94BA21DF91CF911F910895E5EEF1E0B0
:1044D00085E0DF011D928A95E9F71092E4011092C0
:1044E000E3010895833081F128F4813059F082305E
:1044F000D1F00895853009F449C0B8F1863009F447
:1045000056C0089520911501862F90E0820F911DCD
:104510008F3F910520F4620F6093150108958FEF8E
:1045200080931501089520911401862F90E0820F49
:10453000911D8F3F910520F4620F6093140108953F
:104540008FEF80931401089520911301862F90E03E
:10455000820F911D8F3F910520F4620F609313012C
:1045600008958FEF80931301089520911201862FF3
:1045700090E0820F911D8F3F910520F4620F6093B0
:10458000120108958FEF8093120108952091110177
:10459000862F90E0820F911D8F3F910520F4620FCE
:1045A0006093110108958FEF809311010895209178
:1045B0001001862F90E0820F911D8F3F910520F40E
:1045C000620F6093100108958FEF8093100108959A
:1045D000833011F128F4813049F0823091F0089550
:1045E000853081F120F18630C1F108958091150167
:1045F000681720F4861B8093150108951092150109
:10460000089580911401681720F4861B809314018B
:10461000089510921401089580911301681720F4F1
:10462000861B8093130108951092130108958091C1
:104630001201681720F4861B8093120108951092CE
:104640001201089580911101681720F4861B809350
:1046500011010895109211010895809110016817B9
:1046600020F4861B80931001089510921001089584
:104670008D3109F43FC008F5803109F485C070F42C
:10468000873009F456C018F48630D9F131C08B3028
:1046900009F4A5C08E3009F466C02AC0863109F439
:1046A0009EC020F4813109F479C022C0893109F417
:1046B00096C08B3109F44DC01BC0853309F487C007
:1046C00048F4873209F483C008F473C0893209F4CE
:1046D0007EC00EC0833438F48A3308F068C0883353
:1046E00009F47DC005C0833409F471C0883499F0A1
:1046F00080E008950E94AB240E9491130E949A0CBE
:104700006EC08091DB01817F8E7F8093DB0181E031
:104710008093EB0108950E9431182FEF83ED90E311
:10472000215080409040E1F700C000000E94D51F5A
:1047300056C09091DB01892F8095817080FB90F9A4
:1047400019F0966098601DC0997F977F9093DB0168
:1047500046C09091DB0191FB882780F921E08227F8
:1047600080FB91F909C09091DB0192FB882780F9C9
:1047700021E0822780FB92F99093DB01882379F175
:1047800091609093DB0108959091DB0193FB882762
:1047900080F921E0822780FB93F9EECF0E94311847
:1047A00080910D0191E0892780930D0118C027ECBD
:1047B00001C023EE280F61E070E080E090E004C0CB
:1047C000660F771F881F991F2A95D2F704C061E0F2
:1047D00070E080E090E00E942F1C0E94311881E080
:1047E000089580E0089580E00895CF93C82F8091C8
:1047F000EB01813079F018F08230D1F184C0A091C2
:104800000E01B0910F018C91813169F0823209F073
:104810007CC009C0A0910E01B0910F018C91813133
:1048200011F0823249F48C2F0E94F12381111DC0B6
:104830008C2F0E9438231AC08C2F0E94F3238111E1
:1048400014C0C43179F048F4CB3079F0C03109F0AC
:1048500060C082E08093EB0108C0C93219F0C83310
:1048600021F057C01092EB0154C081E0817053C019
:10487000C93289F118F5C43171F1A8F4C73009F0D3
:1048800046C08AE08093150194E19093140193E06F
:10489000909313018093120188E08093110188E2C4
:1048A0008093100134C0CE51C63088F5EC2FF0E073
:1048B000E65DFE4F80818093EA0129C0CE34E9F0A5
:1048C00020F4CB3421F56AE013C0C13579F0C2354C
:1048D000F1F461E00DC08091EA01882319F0109293
:1048E000EA0115C081E08093EB0115C061E006C0CC
:1048F0008091EA010E9472220AC06AE08091EA0176
:104900000E94E82204C01092EB0180E004C081E024
:1049100002C080E0ABCFCF910895E1E8F0E0808164
:10492000886080838081816080838FB7F89493E072
:104930009093890090ED909388008FBF0895EFE6E3
:10494000F0E08081826080830895EFE6F0E080816E
:104950008D7F80830895EFE6F0E0808192E08927E3
:10496000808308951F920F920FB60F9211242F93F8
:104970003F934F935F936F937F938F939F93AF93E7
:10498000BF93EF93FF938091EC019091ED0101961D
:104990009093ED018093EC01811103C082E00E94AD
:1049A0009A0CE091ED01E695E695F0E0E256F54FC0
:1049B000E4918091EC018E1303C080E00E949A0C78
:1049C000FF91EF91BF91AF919F918F917F916F91E7
:1049D0005F914F913F912F910F900FBE0F901F90BD
:1049E000189504D06894B1118DC0089570D088F0E6
:1049F0009F5790F0B92F9927B751A0F0D1F0660FCB
:104A0000771F881F991F1AF0BA95C9F712C0B130E5
:104A100081F077D0B1E0089574C0672F782F882790
:104A2000B85F39F0B93FCCF3869577956795B39524
:104A3000D9F73EF490958095709561957F4F8F4F93
:104A40009F4F0895E89409C097FB3EF49095809598
:104A5000709561957F4F8F4F9F4F9923A9F0F92F44
:104A600096E9BB279395F695879577956795B795C2
:104A7000F111F8CFFAF4BB0F11F460FF1BC06F5FA8
:104A80007F4F8F4F9F4F16C0882311F096E911C0BA
:104A9000772321F09EE8872F762F05C0662371F0DB
:104AA00096E8862F70E060E02AF09A95660F771FEF
:104AB000881FDAF7880F9695879597F9089557FD1F
:104AC0009058440F551F59F05F3F71F04795880F7C
:104AD00097FB991F61F09F3F79F087950895121613
:104AE00013061406551FF2CF4695F1DF08C01616BF
:104AF00017061806991FF1CF869571056105089470
:104B00000895E894BB2766277727CB0197F9089586
:104B10000BD078C069D028F06ED018F0952309F03A
:104B20005AC05FC01124EECFCADFA0F3959FD1F326
:104B3000950F50E0551F629FF001729FBB27F00D4B
:104B4000B11D639FAA27F00DB11DAA1F649F6627A0
:104B5000B00DA11D661F829F2227B00DA11D621FEF
:104B6000739FB00DA11D621F839FA00D611D221FA9
:104B7000749F3327A00D611D231F849F600D211D8D
:104B8000822F762F6A2F11249F5750408AF0E1F030
:104B900088234AF0EE0FFF1FBB1F661F771F881F79
:104BA00091505040A9F79E3F510570F014C0AACF14
:104BB0005F3FECF3983EDCF3869577956795B79564
:104BC000F795E7959F5FC1F7FE2B880F911D96958E
:104BD000879597F9089597F99F6780E870E060E0FE
:104BE00008959FEF80EC089500240A941616170686
:104BF00018060906089500240A94121613061406CE
:104C000005060895092E0394000C11F4882352F030
:104C1000BB0F40F4BF2B11F460FF04C06F5F7F4FE8
:104C20008F4F9F4F089597FB072E16F4009407D0DF
:104C300077FD09D00E942D2607FC05D03EF4909503
:104C400081959F4F0895709561957F4F0895EE0F60
:104C5000FF1F0590F491E02D0994AA1BBB1B51E1A5
:104C600007C0AA1FBB1FA617B70710F0A61BB70BDC
:104C7000881F991F5A95A9F780959095BC01CD0181
:104C80000895F999FECF92BD81BDF89A992780B514
:104C90000895A8E1B0E042E050E00C946926262F88
:104CA000F999FECF92BD81BDF89A019700B4021622
:104CB00039F01FBA20BD0FB6F894FA9AF99A0FBED0
:104CC00008950196272F0E9450260C944F26DC0150
:104CD000CB01FC01F999FECF06C0F2BDE1BDF89A07
:104CE000319600B40D9241505040B8F70895F894B1
:024CF000FFCFF4
:104CF20002209C0C290D060DD20C9F0C0101C8014B
:104D020028080A03140A404D36395E0A110ADB09E3
:104D1200A20935094E096709800901020304050643
:044D22000708090075
:00000001FF
